{
  "abi": [
    {
      "inputs": [
        {
          "internalType": "address",
          "name": "",
          "type": "address"
        }
      ],
      "name": "blacklist",
      "outputs": [
        {
          "internalType": "bool",
          "name": "",
          "type": "bool"
        }
      ],
      "stateMutability": "view",
      "type": "function"
    },
    {
      "inputs": [
        {
          "internalType": "address",
          "name": "target",
          "type": "address"
        }
      ],
      "name": "isBlacklisted",
      "outputs": [
        {
          "internalType": "bool",
          "name": "",
          "type": "bool"
        }
      ],
      "stateMutability": "view",
      "type": "function"
    },
    {
      "inputs": [
        {
          "internalType": "address",
          "name": "target",
          "type": "address"
        },
        {
          "internalType": "string",
          "name": "reason",
          "type": "string"
        },
        {
          "internalType": "uint256",
          "name": "severity",
          "type": "uint256"
        }
      ],
      "name": "reportAddress",
      "outputs": [],
      "stateMutability": "nonpayable",
      "type": "function"
    },
    {
      "inputs": [
        {
          "internalType": "address",
          "name": "",
          "type": "address"
        },
        {
          "internalType": "uint256",
          "name": "",
          "type": "uint256"
        }
      ],
      "name": "reports",
      "outputs": [
        {
          "internalType": "address",
          "name": "reporter",
          "type": "address"
        },
        {
          "internalType": "string",
          "name": "reason",
          "type": "string"
        },
        {
          "internalType": "uint256",
          "name": "severity",
          "type": "uint256"
        }
      ],
      "stateMutability": "view",
      "type": "function"
    }
  ],
  "devdoc": {
    "kind": "dev",
    "methods": {},
    "version": 1
  },
  "evm": {
    "assembly": "    /* \"ScamRegistry.sol\":61:767  contract ScamRegistry {... */\n  mstore(0x40, 0x80)\n  callvalue\n  dup1\n  iszero\n  tag_1\n  jumpi\n  0x00\n  dup1\n  revert\ntag_1:\n  pop\n  dataSize(sub_0)\n  dup1\n  dataOffset(sub_0)\n  0x00\n  codecopy\n  0x00\n  return\nstop\n\nsub_0: assembly {\n        /* \"ScamRegistry.sol\":61:767  contract ScamRegistry {... */\n      mstore(0x40, 0x80)\n      callvalue\n      dup1\n      iszero\n      tag_1\n      jumpi\n      0x00\n      dup1\n      revert\n    tag_1:\n      pop\n      jumpi(tag_2, lt(calldatasize, 0x04))\n      shr(0xe0, calldataload(0x00))\n      dup1\n      0x4d5d2302\n      eq\n      tag_3\n      jumpi\n      dup1\n      0xbad02c7e\n      eq\n      tag_4\n      jumpi\n      dup1\n      0xf9f92be4\n      eq\n      tag_5\n      jumpi\n      dup1\n      0xfe575a87\n      eq\n      tag_6\n      jumpi\n    tag_2:\n      0x00\n      dup1\n      revert\n        /* \"ScamRegistry.sol\":299:616  function reportAddress(... */\n    tag_3:\n      tag_7\n      tag_8\n      calldatasize\n      0x04\n      tag_9\n      jump\t// in\n    tag_8:\n      tag_10\n      jump\t// in\n    tag_7:\n      stop\n        /* \"ScamRegistry.sol\":197:240  mapping(address => Report[]) public reports */\n    tag_4:\n      tag_11\n      tag_12\n      calldatasize\n      0x04\n      tag_13\n      jump\t// in\n    tag_12:\n      tag_14\n      jump\t// in\n    tag_11:\n      mload(0x40)\n      tag_15\n      swap4\n      swap3\n      swap2\n      swap1\n      tag_16\n      jump\t// in\n    tag_15:\n      mload(0x40)\n      dup1\n      swap2\n      sub\n      swap1\n      return\n        /* \"ScamRegistry.sol\":249:290  mapping(address => bool) public blacklist */\n    tag_5:\n      tag_17\n      tag_18\n      calldatasize\n      0x04\n      tag_19\n      jump\t// in\n    tag_18:\n      mstore(0x20, 0x01)\n      0x00\n      swap1\n      dup2\n      mstore\n      0x40\n      swap1\n      keccak256\n      sload\n      0xff\n      and\n      dup2\n      jump\n    tag_17:\n      mload(0x40)\n        /* \"#utility.yul\":2648:2662   */\n      swap1\n      iszero\n        /* \"#utility.yul\":2641:2663   */\n      iszero\n        /* \"#utility.yul\":2623:2664   */\n      dup2\n      mstore\n        /* \"#utility.yul\":2611:2613   */\n      0x20\n        /* \"#utility.yul\":2596:2614   */\n      add\n        /* \"ScamRegistry.sol\":249:290  mapping(address => bool) public blacklist */\n      tag_15\n        /* \"#utility.yul\":2483:2670   */\n      jump\n        /* \"ScamRegistry.sol\":624:764  function isBlacklisted(address target)... */\n    tag_6:\n      tag_17\n      tag_24\n      calldatasize\n      0x04\n      tag_19\n      jump\t// in\n    tag_24:\n      sub(shl(0xa0, 0x01), 0x01)\n        /* \"ScamRegistry.sol\":739:756  blacklist[target] */\n      and\n        /* \"ScamRegistry.sol\":710:714  bool */\n      0x00\n        /* \"ScamRegistry.sol\":739:756  blacklist[target] */\n      swap1\n      dup2\n      mstore\n        /* \"ScamRegistry.sol\":739:748  blacklist */\n      0x01\n        /* \"ScamRegistry.sol\":739:756  blacklist[target] */\n      0x20\n      mstore\n      0x40\n      swap1\n      keccak256\n      sload\n      0xff\n      and\n      swap1\n        /* \"ScamRegistry.sol\":624:764  function isBlacklisted(address target)... */\n      jump\n        /* \"ScamRegistry.sol\":299:616  function reportAddress(... */\n    tag_10:\n      sub(shl(0xa0, 0x01), 0x01)\n        /* \"ScamRegistry.sol\":429:444  reports[target] */\n      dup4\n      dup2\n      and\n        /* \"ScamRegistry.sol\":429:436  reports */\n      0x00\n        /* \"ScamRegistry.sol\":429:444  reports[target] */\n      swap1\n      dup2\n      mstore\n      0x20\n      dup2\n      dup2\n      mstore\n      0x40\n      dup1\n      dup4\n      keccak256\n        /* \"ScamRegistry.sol\":464:500  Report(msg.sender, reason, severity) */\n      dup2\n      mload\n      0x60\n      dup2\n      add\n      dup4\n      mstore\n        /* \"ScamRegistry.sol\":471:481  msg.sender */\n      caller\n        /* \"ScamRegistry.sol\":464:500  Report(msg.sender, reason, severity) */\n      dup2\n      mstore\n      dup1\n      dup5\n      add\n      dup9\n      dup2\n      mstore\n      swap3\n      dup2\n      add\n      dup8\n      swap1\n      mstore\n        /* \"ScamRegistry.sol\":429:511  reports[target].push(... */\n      dup2\n      sload\n      0x01\n      dup1\n      dup3\n      add\n      dup5\n      sstore\n      swap3\n      dup7\n      mstore\n      swap4\n      swap1\n      swap5\n      keccak256\n      dup5\n      mload\n      0x03\n      swap1\n      swap5\n      mul\n      add\n      dup1\n      sload\n      0xffffffffffffffffffffffff0000000000000000000000000000000000000000\n      and\n      swap4\n      swap1\n      swap6\n      and\n      swap3\n      swap1\n      swap3\n      or\n      dup5\n      sstore\n      mload\n        /* \"ScamRegistry.sol\":464:500  Report(msg.sender, reason, severity) */\n      swap2\n      swap3\n        /* \"ScamRegistry.sol\":429:511  reports[target].push(... */\n      swap2\n      swap1\n      dup3\n      add\n      swap1\n      tag_29\n      swap1\n      dup3\n      tag_30\n      jump\t// in\n    tag_29:\n      pop\n      0x40\n      swap2\n      dup3\n      add\n      mload\n      0x02\n      swap1\n      swap2\n      add\n      sstore\n      sub(shl(0xa0, 0x01), 0x01)\n        /* \"ScamRegistry.sol\":527:542  reports[target] */\n      dup5\n      and\n        /* \"ScamRegistry.sol\":527:534  reports */\n      0x00\n        /* \"ScamRegistry.sol\":527:542  reports[target] */\n      swap1\n      dup2\n      mstore\n      0x20\n      dup2\n      swap1\n      mstore\n      keccak256\n        /* \"ScamRegistry.sol\":527:549  reports[target].length */\n      sload\n        /* \"ScamRegistry.sol\":553:555  10 */\n      0x0a\n      gt\n        /* \"ScamRegistry.sol\":524:609  if(reports[target].length >= 10){... */\n      tag_31\n      jumpi\n      sub(shl(0xa0, 0x01), 0x01)\n        /* \"ScamRegistry.sol\":573:590  blacklist[target] */\n      dup4\n      and\n      0x00\n      swap1\n      dup2\n      mstore\n        /* \"ScamRegistry.sol\":593:597  true */\n      0x01\n        /* \"ScamRegistry.sol\":573:590  blacklist[target] */\n      0x20\n      dup2\n      swap1\n      mstore\n      0x40\n      swap1\n      swap2\n      keccak256\n        /* \"ScamRegistry.sol\":573:597  blacklist[target] = true */\n      dup1\n      sload\n      not(0xff)\n      and\n      swap1\n      swap2\n      or\n      swap1\n      sstore\n        /* \"ScamRegistry.sol\":524:609  if(reports[target].length >= 10){... */\n    tag_31:\n        /* \"ScamRegistry.sol\":299:616  function reportAddress(... */\n      pop\n      pop\n      pop\n      jump\t// out\n        /* \"ScamRegistry.sol\":197:240  mapping(address => Report[]) public reports */\n    tag_14:\n      mstore(0x20, 0x00)\n      dup2\n      0x00\n      mstore\n      keccak256(0x00, 0x40)\n      dup2\n      dup2\n      sload\n      dup2\n      lt\n      tag_32\n      jumpi\n      0x00\n      dup1\n      revert\n    tag_32:\n      0x00\n      swap2\n      dup3\n      mstore\n      0x20\n      swap1\n      swap2\n      keccak256\n      0x03\n      swap1\n      swap2\n      mul\n      add\n      dup1\n      sload\n      0x01\n      dup3\n      add\n      dup1\n      sload\n      sub(shl(0xa0, 0x01), 0x01)\n      swap1\n      swap3\n      and\n      swap5\n      pop\n      swap2\n      swap3\n      pop\n      tag_34\n      swap1\n      tag_35\n      jump\t// in\n    tag_34:\n      dup1\n      0x1f\n      add\n      0x20\n      dup1\n      swap2\n      div\n      mul\n      0x20\n      add\n      mload(0x40)\n      swap1\n      dup2\n      add\n      0x40\n      mstore\n      dup1\n      swap3\n      swap2\n      swap1\n      dup2\n      dup2\n      mstore\n      0x20\n      add\n      dup3\n      dup1\n      sload\n      tag_36\n      swap1\n      tag_35\n      jump\t// in\n    tag_36:\n      dup1\n      iszero\n      tag_37\n      jumpi\n      dup1\n      0x1f\n      lt\n      tag_38\n      jumpi\n      0x0100\n      dup1\n      dup4\n      sload\n      div\n      mul\n      dup4\n      mstore\n      swap2\n      0x20\n      add\n      swap2\n      jump(tag_37)\n    tag_38:\n      dup3\n      add\n      swap2\n      swap1\n      0x00\n      mstore\n      keccak256(0x00, 0x20)\n      swap1\n    tag_39:\n      dup2\n      sload\n      dup2\n      mstore\n      swap1\n      0x01\n      add\n      swap1\n      0x20\n      add\n      dup1\n      dup4\n      gt\n      tag_39\n      jumpi\n      dup3\n      swap1\n      sub\n      0x1f\n      and\n      dup3\n      add\n      swap2\n    tag_37:\n      pop\n      pop\n      pop\n      pop\n      pop\n      swap1\n      dup1\n      0x02\n      add\n      sload\n      swap1\n      pop\n      dup4\n      jump\t// out\n        /* \"#utility.yul\":14:210   */\n    tag_41:\n        /* \"#utility.yul\":82:102   */\n      dup1\n      calldataload\n      sub(shl(0xa0, 0x01), 0x01)\n        /* \"#utility.yul\":131:185   */\n      dup2\n      and\n        /* \"#utility.yul\":121:186   */\n      dup2\n      eq\n        /* \"#utility.yul\":111:204   */\n      tag_48\n      jumpi\n        /* \"#utility.yul\":200:201   */\n      0x00\n        /* \"#utility.yul\":197:198   */\n      dup1\n        /* \"#utility.yul\":190:202   */\n      revert\n        /* \"#utility.yul\":111:204   */\n    tag_48:\n        /* \"#utility.yul\":14:210   */\n      swap2\n      swap1\n      pop\n      jump\t// out\n        /* \"#utility.yul\":215:342   */\n    tag_42:\n        /* \"#utility.yul\":276:286   */\n      0x4e487b71\n        /* \"#utility.yul\":271:274   */\n      0xe0\n        /* \"#utility.yul\":267:287   */\n      shl\n        /* \"#utility.yul\":264:265   */\n      0x00\n        /* \"#utility.yul\":257:288   */\n      mstore\n        /* \"#utility.yul\":307:311   */\n      0x41\n        /* \"#utility.yul\":304:305   */\n      0x04\n        /* \"#utility.yul\":297:312   */\n      mstore\n        /* \"#utility.yul\":331:335   */\n      0x24\n        /* \"#utility.yul\":328:329   */\n      0x00\n        /* \"#utility.yul\":321:336   */\n      revert\n        /* \"#utility.yul\":347:1411   */\n    tag_9:\n        /* \"#utility.yul\":434:440   */\n      0x00\n        /* \"#utility.yul\":442:448   */\n      dup1\n        /* \"#utility.yul\":450:456   */\n      0x00\n        /* \"#utility.yul\":503:505   */\n      0x60\n        /* \"#utility.yul\":491:500   */\n      dup5\n        /* \"#utility.yul\":482:489   */\n      dup7\n        /* \"#utility.yul\":478:501   */\n      sub\n        /* \"#utility.yul\":474:506   */\n      slt\n        /* \"#utility.yul\":471:523   */\n      iszero\n      tag_51\n      jumpi\n        /* \"#utility.yul\":519:520   */\n      0x00\n        /* \"#utility.yul\":516:517   */\n      dup1\n        /* \"#utility.yul\":509:521   */\n      revert\n        /* \"#utility.yul\":471:523   */\n    tag_51:\n        /* \"#utility.yul\":542:571   */\n      tag_52\n        /* \"#utility.yul\":561:570   */\n      dup5\n        /* \"#utility.yul\":542:571   */\n      tag_41\n      jump\t// in\n    tag_52:\n        /* \"#utility.yul\":532:571   */\n      swap3\n      pop\n        /* \"#utility.yul\":622:624   */\n      0x20\n        /* \"#utility.yul\":611:620   */\n      dup5\n        /* \"#utility.yul\":607:625   */\n      add\n        /* \"#utility.yul\":594:626   */\n      calldataload\n        /* \"#utility.yul\":645:663   */\n      0xffffffffffffffff\n        /* \"#utility.yul\":686:688   */\n      dup1\n        /* \"#utility.yul\":678:684   */\n      dup3\n        /* \"#utility.yul\":675:689   */\n      gt\n        /* \"#utility.yul\":672:706   */\n      iszero\n      tag_53\n      jumpi\n        /* \"#utility.yul\":702:703   */\n      0x00\n        /* \"#utility.yul\":699:700   */\n      dup1\n        /* \"#utility.yul\":692:704   */\n      revert\n        /* \"#utility.yul\":672:706   */\n    tag_53:\n        /* \"#utility.yul\":740:746   */\n      dup2\n        /* \"#utility.yul\":729:738   */\n      dup7\n        /* \"#utility.yul\":725:747   */\n      add\n        /* \"#utility.yul\":715:747   */\n      swap2\n      pop\n        /* \"#utility.yul\":785:792   */\n      dup7\n        /* \"#utility.yul\":778:782   */\n      0x1f\n        /* \"#utility.yul\":774:776   */\n      dup4\n        /* \"#utility.yul\":770:783   */\n      add\n        /* \"#utility.yul\":766:793   */\n      slt\n        /* \"#utility.yul\":756:811   */\n      tag_54\n      jumpi\n        /* \"#utility.yul\":807:808   */\n      0x00\n        /* \"#utility.yul\":804:805   */\n      dup1\n        /* \"#utility.yul\":797:809   */\n      revert\n        /* \"#utility.yul\":756:811   */\n    tag_54:\n        /* \"#utility.yul\":843:845   */\n      dup2\n        /* \"#utility.yul\":830:846   */\n      calldataload\n        /* \"#utility.yul\":865:867   */\n      dup2\n        /* \"#utility.yul\":861:863   */\n      dup2\n        /* \"#utility.yul\":858:868   */\n      gt\n        /* \"#utility.yul\":855:891   */\n      iszero\n      tag_56\n      jumpi\n        /* \"#utility.yul\":871:889   */\n      tag_56\n      tag_42\n      jump\t// in\n    tag_56:\n        /* \"#utility.yul\":946:948   */\n      0x40\n        /* \"#utility.yul\":940:949   */\n      mload\n        /* \"#utility.yul\":914:916   */\n      0x1f\n        /* \"#utility.yul\":1000:1013   */\n      dup3\n      add\n      not(0x1f)\n        /* \"#utility.yul\":996:1018   */\n      swap1\n      dup2\n      and\n        /* \"#utility.yul\":1020:1022   */\n      0x3f\n        /* \"#utility.yul\":992:1023   */\n      add\n        /* \"#utility.yul\":988:1028   */\n      and\n        /* \"#utility.yul\":976:1029   */\n      dup2\n      add\n      swap1\n        /* \"#utility.yul\":1044:1062   */\n      dup4\n      dup3\n      gt\n        /* \"#utility.yul\":1064:1086   */\n      dup2\n      dup4\n      lt\n        /* \"#utility.yul\":1041:1087   */\n      or\n        /* \"#utility.yul\":1038:1110   */\n      iszero\n      tag_58\n      jumpi\n        /* \"#utility.yul\":1090:1108   */\n      tag_58\n      tag_42\n      jump\t// in\n    tag_58:\n        /* \"#utility.yul\":1130:1140   */\n      dup2\n        /* \"#utility.yul\":1126:1128   */\n      0x40\n        /* \"#utility.yul\":1119:1141   */\n      mstore\n        /* \"#utility.yul\":1165:1167   */\n      dup3\n        /* \"#utility.yul\":1157:1163   */\n      dup2\n        /* \"#utility.yul\":1150:1168   */\n      mstore\n        /* \"#utility.yul\":1205:1212   */\n      dup10\n        /* \"#utility.yul\":1200:1202   */\n      0x20\n        /* \"#utility.yul\":1195:1197   */\n      dup5\n        /* \"#utility.yul\":1191:1193   */\n      dup8\n        /* \"#utility.yul\":1187:1198   */\n      add\n        /* \"#utility.yul\":1183:1203   */\n      add\n        /* \"#utility.yul\":1180:1213   */\n      gt\n        /* \"#utility.yul\":1177:1230   */\n      iszero\n      tag_59\n      jumpi\n        /* \"#utility.yul\":1226:1227   */\n      0x00\n        /* \"#utility.yul\":1223:1224   */\n      dup1\n        /* \"#utility.yul\":1216:1228   */\n      revert\n        /* \"#utility.yul\":1177:1230   */\n    tag_59:\n        /* \"#utility.yul\":1282:1284   */\n      dup3\n        /* \"#utility.yul\":1277:1279   */\n      0x20\n        /* \"#utility.yul\":1273:1275   */\n      dup7\n        /* \"#utility.yul\":1269:1280   */\n      add\n        /* \"#utility.yul\":1264:1266   */\n      0x20\n        /* \"#utility.yul\":1256:1262   */\n      dup4\n        /* \"#utility.yul\":1252:1267   */\n      add\n        /* \"#utility.yul\":1239:1285   */\n      calldatacopy\n        /* \"#utility.yul\":1327:1328   */\n      0x00\n        /* \"#utility.yul\":1322:1324   */\n      0x20\n        /* \"#utility.yul\":1317:1319   */\n      dup5\n        /* \"#utility.yul\":1309:1315   */\n      dup4\n        /* \"#utility.yul\":1305:1320   */\n      add\n        /* \"#utility.yul\":1301:1325   */\n      add\n        /* \"#utility.yul\":1294:1329   */\n      mstore\n        /* \"#utility.yul\":1348:1354   */\n      dup1\n        /* \"#utility.yul\":1338:1354   */\n      swap7\n      pop\n      pop\n      pop\n      pop\n      pop\n      pop\n        /* \"#utility.yul\":1401:1403   */\n      0x40\n        /* \"#utility.yul\":1390:1399   */\n      dup5\n        /* \"#utility.yul\":1386:1404   */\n      add\n        /* \"#utility.yul\":1373:1405   */\n      calldataload\n        /* \"#utility.yul\":1363:1405   */\n      swap1\n      pop\n        /* \"#utility.yul\":347:1411   */\n      swap3\n      pop\n      swap3\n      pop\n      swap3\n      jump\t// out\n        /* \"#utility.yul\":1416:1670   */\n    tag_13:\n        /* \"#utility.yul\":1484:1490   */\n      0x00\n        /* \"#utility.yul\":1492:1498   */\n      dup1\n        /* \"#utility.yul\":1545:1547   */\n      0x40\n        /* \"#utility.yul\":1533:1542   */\n      dup4\n        /* \"#utility.yul\":1524:1531   */\n      dup6\n        /* \"#utility.yul\":1520:1543   */\n      sub\n        /* \"#utility.yul\":1516:1548   */\n      slt\n        /* \"#utility.yul\":1513:1565   */\n      iszero\n      tag_61\n      jumpi\n        /* \"#utility.yul\":1561:1562   */\n      0x00\n        /* \"#utility.yul\":1558:1559   */\n      dup1\n        /* \"#utility.yul\":1551:1563   */\n      revert\n        /* \"#utility.yul\":1513:1565   */\n    tag_61:\n        /* \"#utility.yul\":1584:1613   */\n      tag_62\n        /* \"#utility.yul\":1603:1612   */\n      dup4\n        /* \"#utility.yul\":1584:1613   */\n      tag_41\n      jump\t// in\n    tag_62:\n        /* \"#utility.yul\":1574:1613   */\n      swap5\n        /* \"#utility.yul\":1660:1662   */\n      0x20\n        /* \"#utility.yul\":1645:1663   */\n      swap4\n      swap1\n      swap4\n      add\n        /* \"#utility.yul\":1632:1664   */\n      calldataload\n      swap4\n      pop\n      pop\n      pop\n        /* \"#utility.yul\":1416:1670   */\n      jump\t// out\n        /* \"#utility.yul\":1675:2287   */\n    tag_16:\n      sub(shl(0xa0, 0x01), 0x01)\n        /* \"#utility.yul\":1884:1890   */\n      dup5\n        /* \"#utility.yul\":1880:1935   */\n      and\n        /* \"#utility.yul\":1869:1878   */\n      dup2\n        /* \"#utility.yul\":1862:1936   */\n      mstore\n        /* \"#utility.yul\":1972:1974   */\n      0x60\n        /* \"#utility.yul\":1967:1969   */\n      0x20\n        /* \"#utility.yul\":1956:1965   */\n      dup3\n        /* \"#utility.yul\":1952:1970   */\n      add\n        /* \"#utility.yul\":1945:1975   */\n      mstore\n        /* \"#utility.yul\":1843:1847   */\n      0x00\n        /* \"#utility.yul\":2004:2010   */\n      dup4\n        /* \"#utility.yul\":1998:2011   */\n      mload\n        /* \"#utility.yul\":2047:2053   */\n      dup1\n        /* \"#utility.yul\":2042:2044   */\n      0x60\n        /* \"#utility.yul\":2031:2040   */\n      dup5\n        /* \"#utility.yul\":2027:2045   */\n      add\n        /* \"#utility.yul\":2020:2054   */\n      mstore\n        /* \"#utility.yul\":2107:2113   */\n      dup1\n        /* \"#utility.yul\":2102:2104   */\n      0x20\n        /* \"#utility.yul\":2094:2100   */\n      dup7\n        /* \"#utility.yul\":2090:2105   */\n      add\n        /* \"#utility.yul\":2084:2087   */\n      0x80\n        /* \"#utility.yul\":2073:2082   */\n      dup6\n        /* \"#utility.yul\":2069:2088   */\n      add\n        /* \"#utility.yul\":2063:2114   */\n      mcopy\n        /* \"#utility.yul\":2164:2165   */\n      0x00\n        /* \"#utility.yul\":2158:2161   */\n      0x80\n        /* \"#utility.yul\":2149:2155   */\n      dup3\n        /* \"#utility.yul\":2138:2147   */\n      dup6\n        /* \"#utility.yul\":2134:2156   */\n      add\n        /* \"#utility.yul\":2130:2162   */\n      add\n        /* \"#utility.yul\":2123:2166   */\n      mstore\n        /* \"#utility.yul\":2234:2237   */\n      0x80\n        /* \"#utility.yul\":2227:2229   */\n      0x1f\n        /* \"#utility.yul\":2223:2230   */\n      not\n        /* \"#utility.yul\":2218:2220   */\n      0x1f\n        /* \"#utility.yul\":2210:2216   */\n      dup4\n        /* \"#utility.yul\":2206:2221   */\n      add\n        /* \"#utility.yul\":2202:2231   */\n      and\n        /* \"#utility.yul\":2191:2200   */\n      dup5\n        /* \"#utility.yul\":2187:2232   */\n      add\n        /* \"#utility.yul\":2183:2238   */\n      add\n        /* \"#utility.yul\":2175:2238   */\n      swap2\n      pop\n      pop\n        /* \"#utility.yul\":2274:2280   */\n      dup3\n        /* \"#utility.yul\":2269:2271   */\n      0x40\n        /* \"#utility.yul\":2258:2267   */\n      dup4\n        /* \"#utility.yul\":2254:2272   */\n      add\n        /* \"#utility.yul\":2247:2281   */\n      mstore\n        /* \"#utility.yul\":1675:2287   */\n      swap5\n      swap4\n      pop\n      pop\n      pop\n      pop\n      jump\t// out\n        /* \"#utility.yul\":2292:2478   */\n    tag_19:\n        /* \"#utility.yul\":2351:2357   */\n      0x00\n        /* \"#utility.yul\":2404:2406   */\n      0x20\n        /* \"#utility.yul\":2392:2401   */\n      dup3\n        /* \"#utility.yul\":2383:2390   */\n      dup5\n        /* \"#utility.yul\":2379:2402   */\n      sub\n        /* \"#utility.yul\":2375:2407   */\n      slt\n        /* \"#utility.yul\":2372:2424   */\n      iszero\n      tag_65\n      jumpi\n        /* \"#utility.yul\":2420:2421   */\n      0x00\n        /* \"#utility.yul\":2417:2418   */\n      dup1\n        /* \"#utility.yul\":2410:2422   */\n      revert\n        /* \"#utility.yul\":2372:2424   */\n    tag_65:\n        /* \"#utility.yul\":2443:2472   */\n      tag_66\n        /* \"#utility.yul\":2462:2471   */\n      dup3\n        /* \"#utility.yul\":2443:2472   */\n      tag_41\n      jump\t// in\n    tag_66:\n        /* \"#utility.yul\":2433:2472   */\n      swap4\n        /* \"#utility.yul\":2292:2478   */\n      swap3\n      pop\n      pop\n      pop\n      jump\t// out\n        /* \"#utility.yul\":2675:3055   */\n    tag_35:\n        /* \"#utility.yul\":2754:2755   */\n      0x01\n        /* \"#utility.yul\":2750:2762   */\n      dup2\n      dup2\n      shr\n      swap1\n        /* \"#utility.yul\":2797:2809   */\n      dup3\n      and\n      dup1\n        /* \"#utility.yul\":2818:2879   */\n      tag_69\n      jumpi\n        /* \"#utility.yul\":2872:2876   */\n      0x7f\n        /* \"#utility.yul\":2864:2870   */\n      dup3\n        /* \"#utility.yul\":2860:2877   */\n      and\n        /* \"#utility.yul\":2850:2877   */\n      swap2\n      pop\n        /* \"#utility.yul\":2818:2879   */\n    tag_69:\n        /* \"#utility.yul\":2925:2927   */\n      0x20\n        /* \"#utility.yul\":2917:2923   */\n      dup3\n        /* \"#utility.yul\":2914:2928   */\n      lt\n        /* \"#utility.yul\":2894:2912   */\n      dup2\n        /* \"#utility.yul\":2891:2929   */\n      sub\n        /* \"#utility.yul\":2888:3049   */\n      tag_70\n      jumpi\n        /* \"#utility.yul\":2971:2981   */\n      0x4e487b71\n        /* \"#utility.yul\":2966:2969   */\n      0xe0\n        /* \"#utility.yul\":2962:2982   */\n      shl\n        /* \"#utility.yul\":2959:2960   */\n      0x00\n        /* \"#utility.yul\":2952:2983   */\n      mstore\n        /* \"#utility.yul\":3006:3010   */\n      0x22\n        /* \"#utility.yul\":3003:3004   */\n      0x04\n        /* \"#utility.yul\":2996:3011   */\n      mstore\n        /* \"#utility.yul\":3034:3038   */\n      0x24\n        /* \"#utility.yul\":3031:3032   */\n      0x00\n        /* \"#utility.yul\":3024:3039   */\n      revert\n        /* \"#utility.yul\":2888:3049   */\n    tag_70:\n      pop\n        /* \"#utility.yul\":2675:3055   */\n      swap2\n      swap1\n      pop\n      jump\t// out\n        /* \"#utility.yul\":3186:3704   */\n    tag_44:\n        /* \"#utility.yul\":3288:3290   */\n      0x1f\n        /* \"#utility.yul\":3283:3286   */\n      dup3\n        /* \"#utility.yul\":3280:3291   */\n      gt\n        /* \"#utility.yul\":3277:3698   */\n      iszero\n      tag_31\n      jumpi\n        /* \"#utility.yul\":3324:3329   */\n      dup1\n        /* \"#utility.yul\":3321:3322   */\n      0x00\n        /* \"#utility.yul\":3314:3330   */\n      mstore\n        /* \"#utility.yul\":3368:3372   */\n      0x20\n        /* \"#utility.yul\":3365:3366   */\n      0x00\n        /* \"#utility.yul\":3355:3373   */\n      keccak256\n        /* \"#utility.yul\":3438:3440   */\n      0x1f\n        /* \"#utility.yul\":3426:3436   */\n      dup5\n        /* \"#utility.yul\":3422:3441   */\n      add\n        /* \"#utility.yul\":3419:3420   */\n      0x05\n        /* \"#utility.yul\":3415:3442   */\n      shr\n        /* \"#utility.yul\":3409:3413   */\n      dup2\n        /* \"#utility.yul\":3405:3443   */\n      add\n        /* \"#utility.yul\":3474:3478   */\n      0x20\n        /* \"#utility.yul\":3462:3472   */\n      dup6\n        /* \"#utility.yul\":3459:3479   */\n      lt\n        /* \"#utility.yul\":3456:3503   */\n      iszero\n      tag_74\n      jumpi\n      pop\n        /* \"#utility.yul\":3497:3501   */\n      dup1\n        /* \"#utility.yul\":3456:3503   */\n    tag_74:\n        /* \"#utility.yul\":3552:3554   */\n      0x1f\n        /* \"#utility.yul\":3547:3550   */\n      dup5\n        /* \"#utility.yul\":3543:3555   */\n      add\n        /* \"#utility.yul\":3540:3541   */\n      0x05\n        /* \"#utility.yul\":3536:3556   */\n      shr\n        /* \"#utility.yul\":3530:3534   */\n      dup3\n        /* \"#utility.yul\":3526:3557   */\n      add\n        /* \"#utility.yul\":3516:3557   */\n      swap2\n      pop\n        /* \"#utility.yul\":3607:3688   */\n    tag_75:\n        /* \"#utility.yul\":3625:3627   */\n      dup2\n        /* \"#utility.yul\":3618:3623   */\n      dup2\n        /* \"#utility.yul\":3615:3628   */\n      lt\n        /* \"#utility.yul\":3607:3688   */\n      iszero\n      tag_77\n      jumpi\n        /* \"#utility.yul\":3684:3685   */\n      0x00\n        /* \"#utility.yul\":3670:3686   */\n      dup2\n      sstore\n        /* \"#utility.yul\":3651:3652   */\n      0x01\n        /* \"#utility.yul\":3640:3653   */\n      add\n        /* \"#utility.yul\":3607:3688   */\n      jump(tag_75)\n    tag_77:\n        /* \"#utility.yul\":3611:3614   */\n      pop\n      pop\n        /* \"#utility.yul\":3186:3704   */\n      pop\n      pop\n      pop\n      jump\t// out\n        /* \"#utility.yul\":3880:5225   */\n    tag_30:\n        /* \"#utility.yul\":4006:4009   */\n      dup2\n        /* \"#utility.yul\":4000:4010   */\n      mload\n        /* \"#utility.yul\":4033:4051   */\n      0xffffffffffffffff\n        /* \"#utility.yul\":4025:4031   */\n      dup2\n        /* \"#utility.yul\":4022:4052   */\n      gt\n        /* \"#utility.yul\":4019:4075   */\n      iszero\n      tag_81\n      jumpi\n        /* \"#utility.yul\":4055:4073   */\n      tag_81\n      tag_42\n      jump\t// in\n    tag_81:\n        /* \"#utility.yul\":4084:4181   */\n      tag_82\n        /* \"#utility.yul\":4174:4180   */\n      dup2\n        /* \"#utility.yul\":4134:4172   */\n      tag_83\n        /* \"#utility.yul\":4166:4170   */\n      dup5\n        /* \"#utility.yul\":4160:4171   */\n      sload\n        /* \"#utility.yul\":4134:4172   */\n      tag_35\n      jump\t// in\n    tag_83:\n        /* \"#utility.yul\":4128:4132   */\n      dup5\n        /* \"#utility.yul\":4084:4181   */\n      tag_44\n      jump\t// in\n    tag_82:\n        /* \"#utility.yul\":4236:4240   */\n      0x20\n      dup1\n        /* \"#utility.yul\":4293:4295   */\n      0x1f\n        /* \"#utility.yul\":4282:4296   */\n      dup4\n      gt\n        /* \"#utility.yul\":4310:4311   */\n      0x01\n        /* \"#utility.yul\":4305:4968   */\n      dup2\n      eq\n      tag_85\n      jumpi\n        /* \"#utility.yul\":5012:5013   */\n      0x00\n        /* \"#utility.yul\":5029:5035   */\n      dup5\n        /* \"#utility.yul\":5026:5115   */\n      iszero\n      tag_86\n      jumpi\n      pop\n        /* \"#utility.yul\":5081:5100   */\n      dup6\n      dup4\n      add\n        /* \"#utility.yul\":5075:5101   */\n      mload\n        /* \"#utility.yul\":5026:5115   */\n    tag_86:\n      not(0x00)\n        /* \"#utility.yul\":3837:3838   */\n      0x03\n        /* \"#utility.yul\":3833:3844   */\n      dup7\n      swap1\n      shl\n        /* \"#utility.yul\":3829:3853   */\n      shr\n        /* \"#utility.yul\":3825:3854   */\n      not\n        /* \"#utility.yul\":3815:3855   */\n      and\n        /* \"#utility.yul\":3861:3862   */\n      0x01\n        /* \"#utility.yul\":3857:3868   */\n      dup6\n      swap1\n      shl\n        /* \"#utility.yul\":3812:3869   */\n      or\n        /* \"#utility.yul\":5128:5209   */\n      dup6\n      sstore\n        /* \"#utility.yul\":4275:5219   */\n      jump(tag_84)\n        /* \"#utility.yul\":4305:4968   */\n    tag_85:\n        /* \"#utility.yul\":3133:3134   */\n      0x00\n        /* \"#utility.yul\":3126:3140   */\n      dup6\n      dup2\n      mstore\n        /* \"#utility.yul\":3170:3174   */\n      0x20\n        /* \"#utility.yul\":3157:3175   */\n      dup2\n      keccak256\n      not(0x1f)\n        /* \"#utility.yul\":4341:4361   */\n      dup7\n      and\n      swap2\n        /* \"#utility.yul\":4459:4695   */\n    tag_89:\n        /* \"#utility.yul\":4473:4480   */\n      dup3\n        /* \"#utility.yul\":4470:4471   */\n      dup2\n        /* \"#utility.yul\":4467:4481   */\n      lt\n        /* \"#utility.yul\":4459:4695   */\n      iszero\n      tag_91\n      jumpi\n        /* \"#utility.yul\":4562:4581   */\n      dup9\n      dup7\n      add\n        /* \"#utility.yul\":4556:4582   */\n      mload\n        /* \"#utility.yul\":4541:4583   */\n      dup3\n      sstore\n        /* \"#utility.yul\":4654:4681   */\n      swap5\n      dup5\n      add\n      swap5\n        /* \"#utility.yul\":4622:4623   */\n      0x01\n        /* \"#utility.yul\":4610:4624   */\n      swap1\n      swap2\n      add\n      swap1\n        /* \"#utility.yul\":4489:4508   */\n      dup5\n      add\n        /* \"#utility.yul\":4459:4695   */\n      jump(tag_89)\n    tag_91:\n        /* \"#utility.yul\":4463:4466   */\n      pop\n        /* \"#utility.yul\":4723:4729   */\n      dup6\n        /* \"#utility.yul\":4714:4721   */\n      dup3\n        /* \"#utility.yul\":4711:4730   */\n      lt\n        /* \"#utility.yul\":4708:4909   */\n      iszero\n      tag_92\n      jumpi\n        /* \"#utility.yul\":4784:4803   */\n      dup8\n      dup6\n      add\n        /* \"#utility.yul\":4778:4804   */\n      mload\n      not(0x00)\n        /* \"#utility.yul\":4867:4868   */\n      0x03\n        /* \"#utility.yul\":4863:4877   */\n      dup9\n      swap1\n      shl\n        /* \"#utility.yul\":4879:4882   */\n      0xf8\n        /* \"#utility.yul\":4859:4883   */\n      and\n        /* \"#utility.yul\":4855:4892   */\n      shr\n        /* \"#utility.yul\":4851:4893   */\n      not\n        /* \"#utility.yul\":4836:4894   */\n      and\n        /* \"#utility.yul\":4821:4895   */\n      dup2\n      sstore\n        /* \"#utility.yul\":4708:4909   */\n    tag_92:\n      pop\n      pop\n        /* \"#utility.yul\":4955:4956   */\n      0x01\n        /* \"#utility.yul\":4946:4952   */\n      dup5\n        /* \"#utility.yul\":4943:4944   */\n      0x01\n        /* \"#utility.yul\":4939:4953   */\n      shl\n        /* \"#utility.yul\":4935:4957   */\n      add\n        /* \"#utility.yul\":4929:4933   */\n      dup6\n        /* \"#utility.yul\":4922:4958   */\n      sstore\n        /* \"#utility.yul\":4275:5219   */\n    tag_84:\n      pop\n      pop\n      pop\n      pop\n        /* \"#utility.yul\":3880:5225   */\n      pop\n      pop\n      jump\t// out\n\n    auxdata: 0xa264697066735822122007020463ca6368bedc06bbd81ce3d49dd3fc53c3ff3c1ef38a3bea97a6a213f164736f6c63430008190033\n}\n",
    "bytecode": {
      "linkReferences": {},
      "object": "6080604052348015600e575f80fd5b506105968061001c5f395ff3fe608060405234801561000f575f80fd5b506004361061004a575f3560e01c80634d5d23021461004e578063bad02c7e14610063578063f9f92be41461008e578063fe575a87146100c0575b5f80fd5b61006161005c3660046102c5565b6100eb565b005b610076610071366004610389565b6101c7565b604051610085939291906103b1565b60405180910390f35b6100b061009c3660046103fd565b60016020525f908152604090205460ff1681565b6040519015158152602001610085565b6100b06100ce3660046103fd565b6001600160a01b03165f9081526001602052604090205460ff1690565b6001600160a01b038381165f90815260208181526040808320815160608101835233815280840188815292810187905281546001808201845592865293909420845160039094020180547fffffffffffffffffffffffff00000000000000000000000000000000000000001693909516929092178455519192919082019061017390826104a0565b506040918201516002909101556001600160a01b0384165f90815260208190522054600a116101c2576001600160a01b0383165f908152600160208190526040909120805460ff191690911790555b505050565b5f602052815f5260405f2081815481106101df575f80fd5b5f918252602090912060039091020180546001820180546001600160a01b03909216945091925061020f9061041d565b80601f016020809104026020016040519081016040528092919081815260200182805461023b9061041d565b80156102865780601f1061025d57610100808354040283529160200191610286565b820191905f5260205f20905b81548152906001019060200180831161026957829003601f168201915b5050505050908060020154905083565b80356001600160a01b03811681146102ac575f80fd5b919050565b634e487b7160e01b5f52604160045260245ffd5b5f805f606084860312156102d7575f80fd5b6102e084610296565b9250602084013567ffffffffffffffff808211156102fc575f80fd5b818601915086601f83011261030f575f80fd5b813581811115610321576103216102b1565b604051601f8201601f19908116603f01168101908382118183101715610349576103496102b1565b81604052828152896020848701011115610361575f80fd5b826020860160208301375f602084830101528096505050505050604084013590509250925092565b5f806040838503121561039a575f80fd5b6103a383610296565b946020939093013593505050565b6001600160a01b0384168152606060208201525f83518060608401528060208601608085015e5f608082850101526080601f19601f830116840101915050826040830152949350505050565b5f6020828403121561040d575f80fd5b61041682610296565b9392505050565b600181811c9082168061043157607f821691505b60208210810361044f57634e487b7160e01b5f52602260045260245ffd5b50919050565b601f8211156101c257805f5260205f20601f840160051c8101602085101561047a5750805b601f840160051c820191505b81811015610499575f8155600101610486565b5050505050565b815167ffffffffffffffff8111156104ba576104ba6102b1565b6104ce816104c8845461041d565b84610455565b602080601f831160018114610501575f84156104ea5750858301515b5f19600386901b1c1916600185901b178555610558565b5f85815260208120601f198616915b8281101561052f57888601518255948401946001909101908401610510565b508582101561054c57878501515f19600388901b60f8161c191681555b505060018460011b0185555b50505050505056fea264697066735822122007020463ca6368bedc06bbd81ce3d49dd3fc53c3ff3c1ef38a3bea97a6a213f164736f6c63430008190033",
      "opcodes": "PUSH1 0x80 PUSH1 0x40 MSTORE CALLVALUE DUP1 ISZERO PUSH1 0xE JUMPI PUSH0 DUP1 REVERT JUMPDEST POP PUSH2 0x596 DUP1 PUSH2 0x1C PUSH0 CODECOPY PUSH0 RETURN INVALID PUSH1 0x80 PUSH1 0x40 MSTORE CALLVALUE DUP1 ISZERO PUSH2 0xF JUMPI PUSH0 DUP1 REVERT JUMPDEST POP PUSH1 0x4 CALLDATASIZE LT PUSH2 0x4A JUMPI PUSH0 CALLDATALOAD PUSH1 0xE0 SHR DUP1 PUSH4 0x4D5D2302 EQ PUSH2 0x4E JUMPI DUP1 PUSH4 0xBAD02C7E EQ PUSH2 0x63 JUMPI DUP1 PUSH4 0xF9F92BE4 EQ PUSH2 0x8E JUMPI DUP1 PUSH4 0xFE575A87 EQ PUSH2 0xC0 JUMPI JUMPDEST PUSH0 DUP1 REVERT JUMPDEST PUSH2 0x61 PUSH2 0x5C CALLDATASIZE PUSH1 0x4 PUSH2 0x2C5 JUMP JUMPDEST PUSH2 0xEB JUMP JUMPDEST STOP JUMPDEST PUSH2 0x76 PUSH2 0x71 CALLDATASIZE PUSH1 0x4 PUSH2 0x389 JUMP JUMPDEST PUSH2 0x1C7 JUMP JUMPDEST PUSH1 0x40 MLOAD PUSH2 0x85 SWAP4 SWAP3 SWAP2 SWAP1 PUSH2 0x3B1 JUMP JUMPDEST PUSH1 0x40 MLOAD DUP1 SWAP2 SUB SWAP1 RETURN JUMPDEST PUSH2 0xB0 PUSH2 0x9C CALLDATASIZE PUSH1 0x4 PUSH2 0x3FD JUMP JUMPDEST PUSH1 0x1 PUSH1 0x20 MSTORE PUSH0 SWAP1 DUP2 MSTORE PUSH1 0x40 SWAP1 KECCAK256 SLOAD PUSH1 0xFF AND DUP2 JUMP JUMPDEST PUSH1 0x40 MLOAD SWAP1 ISZERO ISZERO DUP2 MSTORE PUSH1 0x20 ADD PUSH2 0x85 JUMP JUMPDEST PUSH2 0xB0 PUSH2 0xCE CALLDATASIZE PUSH1 0x4 PUSH2 0x3FD JUMP JUMPDEST PUSH1 0x1 PUSH1 0x1 PUSH1 0xA0 SHL SUB AND PUSH0 SWAP1 DUP2 MSTORE PUSH1 0x1 PUSH1 0x20 MSTORE PUSH1 0x40 SWAP1 KECCAK256 SLOAD PUSH1 0xFF AND SWAP1 JUMP JUMPDEST PUSH1 0x1 PUSH1 0x1 PUSH1 0xA0 SHL SUB DUP4 DUP2 AND PUSH0 SWAP1 DUP2 MSTORE PUSH1 0x20 DUP2 DUP2 MSTORE PUSH1 0x40 DUP1 DUP4 KECCAK256 DUP2 MLOAD PUSH1 0x60 DUP2 ADD DUP4 MSTORE CALLER DUP2 MSTORE DUP1 DUP5 ADD DUP9 DUP2 MSTORE SWAP3 DUP2 ADD DUP8 SWAP1 MSTORE DUP2 SLOAD PUSH1 0x1 DUP1 DUP3 ADD DUP5 SSTORE SWAP3 DUP7 MSTORE SWAP4 SWAP1 SWAP5 KECCAK256 DUP5 MLOAD PUSH1 0x3 SWAP1 SWAP5 MUL ADD DUP1 SLOAD PUSH32 0xFFFFFFFFFFFFFFFFFFFFFFFF0000000000000000000000000000000000000000 AND SWAP4 SWAP1 SWAP6 AND SWAP3 SWAP1 SWAP3 OR DUP5 SSTORE MLOAD SWAP2 SWAP3 SWAP2 SWAP1 DUP3 ADD SWAP1 PUSH2 0x173 SWAP1 DUP3 PUSH2 0x4A0 JUMP JUMPDEST POP PUSH1 0x40 SWAP2 DUP3 ADD MLOAD PUSH1 0x2 SWAP1 SWAP2 ADD SSTORE PUSH1 0x1 PUSH1 0x1 PUSH1 0xA0 SHL SUB DUP5 AND PUSH0 SWAP1 DUP2 MSTORE PUSH1 0x20 DUP2 SWAP1 MSTORE KECCAK256 SLOAD PUSH1 0xA GT PUSH2 0x1C2 JUMPI PUSH1 0x1 PUSH1 0x1 PUSH1 0xA0 SHL SUB DUP4 AND PUSH0 SWAP1 DUP2 MSTORE PUSH1 0x1 PUSH1 0x20 DUP2 SWAP1 MSTORE PUSH1 0x40 SWAP1 SWAP2 KECCAK256 DUP1 SLOAD PUSH1 0xFF NOT AND SWAP1 SWAP2 OR SWAP1 SSTORE JUMPDEST POP POP POP JUMP JUMPDEST PUSH0 PUSH1 0x20 MSTORE DUP2 PUSH0 MSTORE PUSH1 0x40 PUSH0 KECCAK256 DUP2 DUP2 SLOAD DUP2 LT PUSH2 0x1DF JUMPI PUSH0 DUP1 REVERT JUMPDEST PUSH0 SWAP2 DUP3 MSTORE PUSH1 0x20 SWAP1 SWAP2 KECCAK256 PUSH1 0x3 SWAP1 SWAP2 MUL ADD DUP1 SLOAD PUSH1 0x1 DUP3 ADD DUP1 SLOAD PUSH1 0x1 PUSH1 0x1 PUSH1 0xA0 SHL SUB SWAP1 SWAP3 AND SWAP5 POP SWAP2 SWAP3 POP PUSH2 0x20F SWAP1 PUSH2 0x41D JUMP JUMPDEST DUP1 PUSH1 0x1F ADD PUSH1 0x20 DUP1 SWAP2 DIV MUL PUSH1 0x20 ADD PUSH1 0x40 MLOAD SWAP1 DUP2 ADD PUSH1 0x40 MSTORE DUP1 SWAP3 SWAP2 SWAP1 DUP2 DUP2 MSTORE PUSH1 0x20 ADD DUP3 DUP1 SLOAD PUSH2 0x23B SWAP1 PUSH2 0x41D JUMP JUMPDEST DUP1 ISZERO PUSH2 0x286 JUMPI DUP1 PUSH1 0x1F LT PUSH2 0x25D JUMPI PUSH2 0x100 DUP1 DUP4 SLOAD DIV MUL DUP4 MSTORE SWAP2 PUSH1 0x20 ADD SWAP2 PUSH2 0x286 JUMP JUMPDEST DUP3 ADD SWAP2 SWAP1 PUSH0 MSTORE PUSH1 0x20 PUSH0 KECCAK256 SWAP1 JUMPDEST DUP2 SLOAD DUP2 MSTORE SWAP1 PUSH1 0x1 ADD SWAP1 PUSH1 0x20 ADD DUP1 DUP4 GT PUSH2 0x269 JUMPI DUP3 SWAP1 SUB PUSH1 0x1F AND DUP3 ADD SWAP2 JUMPDEST POP POP POP POP POP SWAP1 DUP1 PUSH1 0x2 ADD SLOAD SWAP1 POP DUP4 JUMP JUMPDEST DUP1 CALLDATALOAD PUSH1 0x1 PUSH1 0x1 PUSH1 0xA0 SHL SUB DUP2 AND DUP2 EQ PUSH2 0x2AC JUMPI PUSH0 DUP1 REVERT JUMPDEST SWAP2 SWAP1 POP JUMP JUMPDEST PUSH4 0x4E487B71 PUSH1 0xE0 SHL PUSH0 MSTORE PUSH1 0x41 PUSH1 0x4 MSTORE PUSH1 0x24 PUSH0 REVERT JUMPDEST PUSH0 DUP1 PUSH0 PUSH1 0x60 DUP5 DUP7 SUB SLT ISZERO PUSH2 0x2D7 JUMPI PUSH0 DUP1 REVERT JUMPDEST PUSH2 0x2E0 DUP5 PUSH2 0x296 JUMP JUMPDEST SWAP3 POP PUSH1 0x20 DUP5 ADD CALLDATALOAD PUSH8 0xFFFFFFFFFFFFFFFF DUP1 DUP3 GT ISZERO PUSH2 0x2FC JUMPI PUSH0 DUP1 REVERT JUMPDEST DUP2 DUP7 ADD SWAP2 POP DUP7 PUSH1 0x1F DUP4 ADD SLT PUSH2 0x30F JUMPI PUSH0 DUP1 REVERT JUMPDEST DUP2 CALLDATALOAD DUP2 DUP2 GT ISZERO PUSH2 0x321 JUMPI PUSH2 0x321 PUSH2 0x2B1 JUMP JUMPDEST PUSH1 0x40 MLOAD PUSH1 0x1F DUP3 ADD PUSH1 0x1F NOT SWAP1 DUP2 AND PUSH1 0x3F ADD AND DUP2 ADD SWAP1 DUP4 DUP3 GT DUP2 DUP4 LT OR ISZERO PUSH2 0x349 JUMPI PUSH2 0x349 PUSH2 0x2B1 JUMP JUMPDEST DUP2 PUSH1 0x40 MSTORE DUP3 DUP2 MSTORE DUP10 PUSH1 0x20 DUP5 DUP8 ADD ADD GT ISZERO PUSH2 0x361 JUMPI PUSH0 DUP1 REVERT JUMPDEST DUP3 PUSH1 0x20 DUP7 ADD PUSH1 0x20 DUP4 ADD CALLDATACOPY PUSH0 PUSH1 0x20 DUP5 DUP4 ADD ADD MSTORE DUP1 SWAP7 POP POP POP POP POP POP PUSH1 0x40 DUP5 ADD CALLDATALOAD SWAP1 POP SWAP3 POP SWAP3 POP SWAP3 JUMP JUMPDEST PUSH0 DUP1 PUSH1 0x40 DUP4 DUP6 SUB SLT ISZERO PUSH2 0x39A JUMPI PUSH0 DUP1 REVERT JUMPDEST PUSH2 0x3A3 DUP4 PUSH2 0x296 JUMP JUMPDEST SWAP5 PUSH1 0x20 SWAP4 SWAP1 SWAP4 ADD CALLDATALOAD SWAP4 POP POP POP JUMP JUMPDEST PUSH1 0x1 PUSH1 0x1 PUSH1 0xA0 SHL SUB DUP5 AND DUP2 MSTORE PUSH1 0x60 PUSH1 0x20 DUP3 ADD MSTORE PUSH0 DUP4 MLOAD DUP1 PUSH1 0x60 DUP5 ADD MSTORE DUP1 PUSH1 0x20 DUP7 ADD PUSH1 0x80 DUP6 ADD MCOPY PUSH0 PUSH1 0x80 DUP3 DUP6 ADD ADD MSTORE PUSH1 0x80 PUSH1 0x1F NOT PUSH1 0x1F DUP4 ADD AND DUP5 ADD ADD SWAP2 POP POP DUP3 PUSH1 0x40 DUP4 ADD MSTORE SWAP5 SWAP4 POP POP POP POP JUMP JUMPDEST PUSH0 PUSH1 0x20 DUP3 DUP5 SUB SLT ISZERO PUSH2 0x40D JUMPI PUSH0 DUP1 REVERT JUMPDEST PUSH2 0x416 DUP3 PUSH2 0x296 JUMP JUMPDEST SWAP4 SWAP3 POP POP POP JUMP JUMPDEST PUSH1 0x1 DUP2 DUP2 SHR SWAP1 DUP3 AND DUP1 PUSH2 0x431 JUMPI PUSH1 0x7F DUP3 AND SWAP2 POP JUMPDEST PUSH1 0x20 DUP3 LT DUP2 SUB PUSH2 0x44F JUMPI PUSH4 0x4E487B71 PUSH1 0xE0 SHL PUSH0 MSTORE PUSH1 0x22 PUSH1 0x4 MSTORE PUSH1 0x24 PUSH0 REVERT JUMPDEST POP SWAP2 SWAP1 POP JUMP JUMPDEST PUSH1 0x1F DUP3 GT ISZERO PUSH2 0x1C2 JUMPI DUP1 PUSH0 MSTORE PUSH1 0x20 PUSH0 KECCAK256 PUSH1 0x1F DUP5 ADD PUSH1 0x5 SHR DUP2 ADD PUSH1 0x20 DUP6 LT ISZERO PUSH2 0x47A JUMPI POP DUP1 JUMPDEST PUSH1 0x1F DUP5 ADD PUSH1 0x5 SHR DUP3 ADD SWAP2 POP JUMPDEST DUP2 DUP2 LT ISZERO PUSH2 0x499 JUMPI PUSH0 DUP2 SSTORE PUSH1 0x1 ADD PUSH2 0x486 JUMP JUMPDEST POP POP POP POP POP JUMP JUMPDEST DUP2 MLOAD PUSH8 0xFFFFFFFFFFFFFFFF DUP2 GT ISZERO PUSH2 0x4BA JUMPI PUSH2 0x4BA PUSH2 0x2B1 JUMP JUMPDEST PUSH2 0x4CE DUP2 PUSH2 0x4C8 DUP5 SLOAD PUSH2 0x41D JUMP JUMPDEST DUP5 PUSH2 0x455 JUMP JUMPDEST PUSH1 0x20 DUP1 PUSH1 0x1F DUP4 GT PUSH1 0x1 DUP2 EQ PUSH2 0x501 JUMPI PUSH0 DUP5 ISZERO PUSH2 0x4EA JUMPI POP DUP6 DUP4 ADD MLOAD JUMPDEST PUSH0 NOT PUSH1 0x3 DUP7 SWAP1 SHL SHR NOT AND PUSH1 0x1 DUP6 SWAP1 SHL OR DUP6 SSTORE PUSH2 0x558 JUMP JUMPDEST PUSH0 DUP6 DUP2 MSTORE PUSH1 0x20 DUP2 KECCAK256 PUSH1 0x1F NOT DUP7 AND SWAP2 JUMPDEST DUP3 DUP2 LT ISZERO PUSH2 0x52F JUMPI DUP9 DUP7 ADD MLOAD DUP3 SSTORE SWAP5 DUP5 ADD SWAP5 PUSH1 0x1 SWAP1 SWAP2 ADD SWAP1 DUP5 ADD PUSH2 0x510 JUMP JUMPDEST POP DUP6 DUP3 LT ISZERO PUSH2 0x54C JUMPI DUP8 DUP6 ADD MLOAD PUSH0 NOT PUSH1 0x3 DUP9 SWAP1 SHL PUSH1 0xF8 AND SHR NOT AND DUP2 SSTORE JUMPDEST POP POP PUSH1 0x1 DUP5 PUSH1 0x1 SHL ADD DUP6 SSTORE JUMPDEST POP POP POP POP POP POP JUMP INVALID LOG2 PUSH5 0x6970667358 0x22 SLT KECCAK256 SMOD MUL DIV PUSH4 0xCA6368BE 0xDC MOD 0xBB 0xD8 SHR 0xE3 0xD4 SWAP14 0xD3 0xFC MSTORE8 0xC3 SELFDESTRUCT EXTCODECOPY 0x1E RETURN DUP11 EXTCODESIZE 0xEA SWAP8 0xA6 LOG2 SGT CALL PUSH5 0x736F6C6343 STOP ADDMOD NOT STOP CALLER "
    },
    "gasEstimates": {
      "creation": {
        "codeDepositCost": "286000",
        "executionCost": "322",
        "totalCost": "286322"
      },
      "external": {
        "blacklist(address)": "2550",
        "isBlacklisted(address)": "2590",
        "reportAddress(address,string,uint256)": "infinite",
        "reports(address,uint256)": "infinite"
      }
    },
    "methodIdentifiers": {
      "blacklist(address)": "f9f92be4",
      "isBlacklisted(address)": "fe575a87",
      "reportAddress(address,string,uint256)": "4d5d2302",
      "reports(address,uint256)": "bad02c7e"
    }
  },
  "storageLayout": {
    "storage": [
      {
        "astId": 14,
        "contract": "ScamRegistry.sol:ScamRegistry",
        "label": "reports",
        "offset": 0,
        "slot": "0",
        "type": "t_mapping(t_address,t_array(t_struct(Report)8_storage)dyn_storage)"
      },
      {
        "astId": 18,
        "contract": "ScamRegistry.sol:ScamRegistry",
        "label": "blacklist",
        "offset": 0,
        "slot": "1",
        "type": "t_mapping(t_address,t_bool)"
      }
    ],
    "types": {
      "t_address": {
        "encoding": "inplace",
        "label": "address",
        "numberOfBytes": "20"
      },
      "t_array(t_struct(Report)8_storage)dyn_storage": {
        "base": "t_struct(Report)8_storage",
        "encoding": "dynamic_array",
        "label": "struct ScamRegistry.Report[]",
        "numberOfBytes": "32"
      },
      "t_bool": {
        "encoding": "inplace",
        "label": "bool",
        "numberOfBytes": "1"
      },
      "t_mapping(t_address,t_array(t_struct(Report)8_storage)dyn_storage)": {
        "encoding": "mapping",
        "key": "t_address",
        "label": "mapping(address => struct ScamRegistry.Report[])",
        "numberOfBytes": "32",
        "value": "t_array(t_struct(Report)8_storage)dyn_storage"
      },
      "t_mapping(t_address,t_bool)": {
        "encoding": "mapping",
        "key": "t_address",
        "label": "mapping(address => bool)",
        "numberOfBytes": "32",
        "value": "t_bool"
      },
      "t_string_storage": {
        "encoding": "bytes",
        "label": "string",
        "numberOfBytes": "32"
      },
      "t_struct(Report)8_storage": {
        "encoding": "inplace",
        "label": "struct ScamRegistry.Report",
        "members": [
          {
            "astId": 3,
            "contract": "ScamRegistry.sol:ScamRegistry",
            "label": "reporter",
            "offset": 0,
            "slot": "0",
            "type": "t_address"
          },
          {
            "astId": 5,
            "contract": "ScamRegistry.sol:ScamRegistry",
            "label": "reason",
            "offset": 0,
            "slot": "1",
            "type": "t_string_storage"
          },
          {
            "astId": 7,
            "contract": "ScamRegistry.sol:ScamRegistry",
            "label": "severity",
            "offset": 0,
            "slot": "2",
            "type": "t_uint256"
          }
        ],
        "numberOfBytes": "96"
      },
      "t_uint256": {
        "encoding": "inplace",
        "label": "uint256",
        "numberOfBytes": "32"
      }
    }
  },
  "userdoc": {
    "kind": "user",
    "methods": {},
    "version": 1
  }
}